{
  "_format": "hh-sol-artifact-1",
  "contractName": "Payments",
  "sourceName": "contracts/Payments.sol",
  "abi": [
    {
      "inputs": [],
      "stateMutability": "nonpayable",
      "type": "constructor"
    },
    {
      "anonymous": false,
      "inputs": [
        {
          "indexed": true,
          "internalType": "address",
          "name": "payer",
          "type": "address"
        },
        {
          "indexed": false,
          "internalType": "uint256",
          "name": "amount",
          "type": "uint256"
        },
        {
          "indexed": false,
          "internalType": "uint256",
          "name": "timestamp",
          "type": "uint256"
        }
      ],
      "name": "PaymentEvent",
      "type": "event"
    },
    {
      "anonymous": false,
      "inputs": [
        {
          "indexed": false,
          "internalType": "uint256",
          "name": "amount",
          "type": "uint256"
        },
        {
          "indexed": false,
          "internalType": "uint256",
          "name": "timestamp",
          "type": "uint256"
        }
      ],
      "name": "Withdrawal",
      "type": "event"
    },
    {
      "inputs": [
        {
          "internalType": "address",
          "name": "payer",
          "type": "address"
        }
      ],
      "name": "getPayments",
      "outputs": [
        {
          "components": [
            {
              "internalType": "uint256",
              "name": "amount",
              "type": "uint256"
            },
            {
              "internalType": "uint256",
              "name": "timestamp",
              "type": "uint256"
            }
          ],
          "internalType": "struct Payments.Payment[]",
          "name": "",
          "type": "tuple[]"
        }
      ],
      "stateMutability": "view",
      "type": "function"
    },
    {
      "inputs": [],
      "name": "owner",
      "outputs": [
        {
          "internalType": "address",
          "name": "",
          "type": "address"
        }
      ],
      "stateMutability": "view",
      "type": "function"
    },
    {
      "inputs": [],
      "name": "withdraw",
      "outputs": [],
      "stateMutability": "nonpayable",
      "type": "function"
    },
    {
      "stateMutability": "payable",
      "type": "receive"
    }
  ],
  "bytecode": "0x608060405234801561001057600080fd5b50336000806101000a81548173ffffffffffffffffffffffffffffffffffffffff021916908373ffffffffffffffffffffffffffffffffffffffff160217905550610768806100606000396000f3fe6080604052600436106100385760003560e01c80631d6a1711146101275780633ccfd60b146101645780638da5cb5b1461017b57610122565b3661012257600160003373ffffffffffffffffffffffffffffffffffffffff1673ffffffffffffffffffffffffffffffffffffffff1681526020019081526020016000206040518060400160405280348152602001428152509080600181540180825580915050600190039060005260206000209060020201600090919091909150600082015181600001556020820151816001015550503373ffffffffffffffffffffffffffffffffffffffff167fdcf4cddc62e97eed2aa858b8ccab0a6cd7badb7d0624063e0ef998a6c862fdc03442604051610118929190610411565b60405180910390a2005b600080fd5b34801561013357600080fd5b5061014e6004803603810190610149919061049d565b6101a6565b60405161015b91906105b7565b60405180910390f35b34801561017057600080fd5b50610179610258565b005b34801561018757600080fd5b506101906103d4565b60405161019d91906105e8565b60405180910390f35b6060600160008373ffffffffffffffffffffffffffffffffffffffff1673ffffffffffffffffffffffffffffffffffffffff168152602001908152602001600020805480602002602001604051908101604052809291908181526020016000905b8282101561024d57838290600052602060002090600202016040518060400160405290816000820154815260200160018201548152505081526020019060010190610207565b505050509050919050565b60008054906101000a900473ffffffffffffffffffffffffffffffffffffffff1673ffffffffffffffffffffffffffffffffffffffff163373ffffffffffffffffffffffffffffffffffffffff16146102e6576040517f08c379a00000000000000000000000000000000000000000000000000000000081526004016102dd90610660565b60405180910390fd5b600047905060003373ffffffffffffffffffffffffffffffffffffffff1682604051610311906106b1565b60006040518083038185875af1925050503d806000811461034e576040519150601f19603f3d011682016040523d82523d6000602084013e610353565b606091505b505090507fbf2ed60bd5b5965d685680c01195c9514e4382e28e3a5a2d2d5244bf59411b938242604051610388929190610411565b60405180910390a1806103d0576040517f08c379a00000000000000000000000000000000000000000000000000000000081526004016103c790610712565b60405180910390fd5b5050565b60008054906101000a900473ffffffffffffffffffffffffffffffffffffffff1681565b6000819050919050565b61040b816103f8565b82525050565b60006040820190506104266000830185610402565b6104336020830184610402565b9392505050565b600080fd5b600073ffffffffffffffffffffffffffffffffffffffff82169050919050565b600061046a8261043f565b9050919050565b61047a8161045f565b811461048557600080fd5b50565b60008135905061049781610471565b92915050565b6000602082840312156104b3576104b261043a565b5b60006104c184828501610488565b91505092915050565b600081519050919050565b600082825260208201905092915050565b6000819050602082019050919050565b6104ff816103f8565b82525050565b60408201600082015161051b60008501826104f6565b50602082015161052e60208501826104f6565b50505050565b60006105408383610505565b60408301905092915050565b6000602082019050919050565b6000610564826104ca565b61056e81856104d5565b9350610579836104e6565b8060005b838110156105aa5781516105918882610534565b975061059c8361054c565b92505060018101905061057d565b5085935050505092915050565b600060208201905081810360008301526105d18184610559565b905092915050565b6105e28161045f565b82525050565b60006020820190506105fd60008301846105d9565b92915050565b600082825260208201905092915050565b7f53656e646572206973206e6f74206f776e657200000000000000000000000000600082015250565b600061064a601383610603565b915061065582610614565b602082019050919050565b600060208201905081810360008301526106798161063d565b9050919050565b600081905092915050565b50565b600061069b600083610680565b91506106a68261068b565b600082019050919050565b60006106bc8261068e565b9150819050919050565b7f5472616e73666572206661696c65640000000000000000000000000000000000600082015250565b60006106fc600f83610603565b9150610707826106c6565b602082019050919050565b6000602082019050818103600083015261072b816106ef565b905091905056fea2646970667358221220d134cd2d4e0935719350950cd1ca227b76d674d8dd395480d2e49087801d300864736f6c63430008090033",
  "linkReferences": {},
  "deployedLinkReferences": {}
}